S016000053616D4432314A3138412D4D4E542E7372656336
S1130000B8240020BD010000B9010000B9010000BE
S113001000000000000000000000000000000000DC
S1130020000000000000000000000000B901000012
S11300300000000000000000B9010000B901000048
S1130040B9010000B9010000B9010000B9010000C4
S1130050B9010000B9010000B9010000B9010000B4
S1130060B9010000B9010000B9010000B9010000A4
S1130070B90100000000000000000000B901000008
S1130080B9010000B9010000B9010000B901000084
S1130090B90100000000000000000000B9010000E8
S11300A0B9010000B9010000B9010000B901000064
S11300B00000000010B5064C2378002B07D1054B37
S11300C0002B02D0044800E000BF0123237010BDC0
S11300D080040020000000001C0A0000084B10B53A
S11300E0002B03D00749084800E000BF0748036815
S11300F0002B00D110BD064B002BFBD09847F9E72D
S113010000000000840400201C0A00001C0A0000F7
S113011000000000204A116A204B0B401362204A61
S113012053688021C9020B43536000221D4B9A601F
S11301301A0053785BB2002BFBDB83225202194B6B
S11301405A601A0053785BB2002BFBDB0022154B7C
S11301509A601A0053785BB2002BFBDB124A114BF6
S11301605A601A0053785BB2002BFBDB0D4A5188AE
S11301700E4B0B43538053785BB2002BFBDB0C4AD2
S1130180084B5A801A0053785BB2002BFBDB0C221D
S1130190084B1A627047C04600080040FFFCFFFF8E
S11301A000400041000C0040010601001440000022
S11301B01541000000040040FEE7C04670B52E4B18
S11301C02E4A9A4203D02E4B2B4A9A4204D32D4BEB
S11301D02D4A9A4210D31EE02C4A294B03339B1A12
S11301E09B0801339B000022234824498C588450E7
S11301F004329A42FAD1EAE7254A224B03339B1A86
S11302009B0801339B0000221F4800211418216021
S113021004329A42FAD11F4AFF211F4B8B43936049
S1130220FD3990235B001D4AD1501D48C378032437
S1130230A34302221343C370C3780C26B34308219B
S11302400B43C370174B987B3025A843050020202F
S113025028439873987BB04301439973997BA143D6
S11302600A439A73104A516880230B4353600F4B1F
S113027098470F4B9847FEE7000000201C0A000037
S113028080040020B8040020800400200400002022
S11302908404002000ED00E0000000000070004134
S11302A00050004100480041004000417508000032
S11302B0D503000070B5040CE2B21F231340640997
S11302C0E1B2C9010E4CA4466144CC1840342678EE
S11302D00125354325705B08C9180B0030331C78A1
S11302E00121114089000F228A4094431C701C781C
S11302F00204120C8A402243D2B21A7070BDC04666
S11303000044004170B5214B196801220A431A6068
S1130310802252005A601A00D369002BFCD11B4A78
S1130320D369DB07FCD41A4B18681821194B98477A
S113033001381649CA68FF2403002340A243100071
S11303401843C8600A00D369002BFCD1124A0F4B32
S11303501A601A00D3699B07FCD40C4A518B1023F2
S11303600B435383D369002BFCD1084910200B4C59
S1130370102507E001339BB2A34203D14A8B2A43E1
S113038092B24A834A8B0242F4D070BD000C004200
S1130390000000205D07000016003000FFFF000091
S11303A010B580231B01064A1360064A1360064AEF
S11303B019681160054A1360054B984710BDC04683
S11303C0A0040020AC040020B4040020B0040020E9
S11303D0D1060000F0B55F4656464D464446F0B49B
S11303E083B000AF664B802212059A6106205B2120
S11303F058541B6A13420DD0624B1B68624A136047
S1130400802109010B68043383F308885F4B9960EA
S1130410136818475E4CA3685B035B0F80221203CA
S11304209A40130C7B6099460733DB08DB006A466D
S1130430D31A9D463B60574B9847574B9847574BA9
S113044098474F4B1A68802149050A431A60544A59
S113045013680B431360534A116A534B0B401362E6
S113046063688022D202134363605048504B98471C
S1130470504B9B464D4B9A46D8475122514688547F
S1130480232805D14C4B98470E204C4B9847F3E753
S1130490652811D180200001494B1860494E1C0089
S11304A0494D7968B0472368581CFF302060A84242
S11304B0F7D9414B9847DFE7702822D13E4B984744
S11304C000223F4B1A604B46002B0AD00024394EC1
S11304D03B4DB0473B6818552B685C1C2C60A1450C
S11304E0F7D83A4C7A6839682068394B98472368BA
S11304F04B442360304B98478022D201354B1A601D
S1130500BAE7762819D12C4B984700222C4B1A6055
S11305104B46002B0CD0304D284E294C2B685A1CCE
S11305202A601878B0472368013323609945F5D8C9
S11305308022D201274B1A609EE76D2802D1274BF7
S1130540984799E7692803D11848194B984793E7C6
S11305505E2891D100231A4A13600824204B984640
S1130560164E150043469869E040C0B2B0470834BF
S1130570E4B22B6801332B60032BF3D97CE7C0462C
S11305800044004104080000B404002000ED00E031
S113059000400041150100001D0700000503000094
S11305A01044004100080040FFFCFFFF040000204D
S11305B0E106000009070000D1060000BD060000A6
S11305C0A4040020E5050000FFFF0300A0040020B0
S11305D01D0600001C440041B0040020A1030000DB
S11305E0002000410A4A137DDB07FCD5084A118B21
S11305F0084B0B401383137DDB07FCD54008044BE9
S1130600D861054A1A801A00137DDB07FCD57047B0
S113061000400041E0FEFFFF02A5FFFFF0B5214CC2
S1130620237DDB07FCD51F4B5C688025AC435C60F5
S11306301D4C1C801C00237DDB07FCD5194C258B2D
S11306401A4B2B4023834008002A24D04000002367
S1130650541EA446134F164C2688CD5C634501DB1B
S1130660ACB203E0CC18647824022C4304803E80AE
S113067002339BB202309A42EFD80E4B1B78002B08
S113068004D13F2A02D80C4A064B1A80054A137D2E
S1130690DB07FCD504E0074B1B78002BF6D1F2E70F
S11306A0F0BDC0460040004144A5FFFFE0FEFFFF4F
S11306B0EC0900009C04002004A5FFFF034A137EFC
S11306C0DB07FCD580B2014B188570470008004257
S11306D010B57320014B984710BDC046BD060000FD
S11306E0F8B506000378002B0BD00400054F012356
S11306F01D1A2078C0B2B847641934192378002B26
S1130700F7D1F8BDBD060000034A137E5B07FCD594
S1130710014B188DC0B270470008004210B509485B
S1130720094CA0470948A047094B0A4A1A60C0224D
S113073092025A60084A9A81196802220A431A608E
S113074010BDC04602000A00B502000002000B0002
S1130750000800420400314004C5FFFF00224308A2
S11307608B4274D303098B425FD3030A8B4244D375
S1130770030B8B4228D3030C8B420DD3FF220902B7
S113078012BA030C8B4202D31212090265D0030B76
S11307908B4219D300E0090AC30B8B4201D3CB036C
S11307A0C01A5241830B8B4201D38B03C01A5241AE
S11307B0430B8B4201D34B03C01A5241030B8B42B0
S11307C001D30B03C01A5241C30A8B4201D3CB029B
S11307D0C01A5241830A8B4201D38B02C01A524180
S11307E0430A8B4201D34B02C01A5241030A8B4283
S11307F001D30B02C01A5241CDD2C3098B4201D39B
S1130800CB01C01A524183098B4201D38B01C01A18
S1130810524143098B4201D34B01C01A524103098F
S11308208B4201D30B01C01A5241C3088B4201D33E
S1130830CB00C01A524183088B4201D38B00C01AEB
S1130840524143088B4201D34B00C01A5241411A12
S113085000D20146524110467047FFE701B500201F
S113086000F006F802BDC0460029F7D076E77047CD
S11308707047C04670B50D4E0D4D0024AD1BAD1034
S113088005D0A300F35801349847A542F9D100F0EC
S1130890B3F8084E084D0024AD1BAD1005D0A300DD
S11308A0F35801349847A542F9D170BD040A0000F9
S11308B0040A0000040A00000C0A0000034B10B5EF
S11308C0002B02D0024800F005F810BD0000000023
S11308D0E508000010B5010000230022002000F00C
S11308E01BF810BD70B5094B094CE41AA41009D0CB
S11308F0084AA518AD00ED182B68013C9847043D43
S1130900002CF9D100F082F870BDC046180A00002E
S11309101C0A0000FFFFFF3FF8B544465F465646F9
S11309204D469B462F4BF0B41C68A4235B00050086
S1130930E0580E00904600284BD043681F2B0DDC76
S11309405C1C002D21D102339B0044601E5000200A
S11309503CBC90469946A246AB46F8BD224B002BC0
S11309603CD0C820400000E000BF002836D0A422BC
S113097000235200A15843600160A05040328350CC
S1130980043283500124002DDDD09A009146814425
S1130990424688214F467A50C422520090468044F1
S11309A042468739994012688A460A439446424629
S11309B061461160842249465F4652008F50022DE1
S11309C0C1D1020055468D32FF3211680D431560C6
S11309D0B9E720004D30FF30E050AEE7012040423F
S11309E0B6E7C046F40900000000000004A50000BA
S11309F04300000058000020F8B5C046F8BC08BC0D
S1130A009E467047BD080000DD000000F8B5C046F2
S10F0A10F8BC08BC9E467047B50000000E
S1130A1C40420F006D696E6953616D2052312E3363
S1130A2C0A426F6F746C6F616465722052312E349C
S1130A3C2E310A44657620426F61726420726567B8
S1130A4C6973746572656420746F204A6572656D90
S1130A5C7920470A426F617264204944203078300F
S1130A6C3030310A00010000000000004403002073
S1130A7CAC0300201404002000000000000000005F
S1130A8C0000000000000000000000000000000056
S1130A9C000000000000000000000000F00900004D
S1130AAC0000000000000000000000000000000036
S1130ABC0000000000000000000000000000000026
S1130ACC0000000000000000000000000000000016
S1130ADC0000000000000000000000000000000006
S1130AEC00000000000000000000000000000000F6
S1130AFC00000000000000000000000000000000E6
S1130B0C00000000000000000000000000000000D5
S1130B1C01000000000000000E33CDAB34126DE672
S1130B2CECDE05000B0000000000000000000000DB
S1130B3C00000000000000000000000000000000A5
S1130B4C0000000000000000000000000000000095
S1130B5C0000000000000000000000000000000085
S1130B6C0000000000000000000000000000000075
S9030000FC
