S016000053616D4432314A3138412D4D4E542E7372656336
S1130000B8240020BD010000B9010000B9010000BE
S113001000000000000000000000000000000000DC
S1130020000000000000000000000000B901000012
S11300300000000000000000B9010000B901000048
S1130040B9010000B9010000B9010000B9010000C4
S1130050B9010000B9010000B9010000B9010000B4
S1130060B9010000B9010000B9010000B9010000A4
S1130070B90100000000000000000000B901000008
S1130080B9010000B9010000B9010000B901000084
S1130090B90100000000000000000000B9010000E8
S11300A0B9010000B9010000B9010000B901000064
S11300B00000000010B5064C2378002B07D1054B37
S11300C0002B02D0044800E000BF0123237010BDC0
S11300D080040020000000007008000008B5084BF0
S11300E0002B03D00748084900E000BF0748036815
S11300F0002B00D108BD064B002BFBD09847F9E735
S11301000000000070080000840400207008000053
S113011000000000204A116A204B0B401362204A61
S113012053688021C9020B43536000221D4B9A601F
S11301301A1C53785BB2002BFBDB83225202194B4F
S11301405A601A1C53785BB2002BFBDB0022154B60
S11301509A601A1C53785BB2002BFBDB124A114BDA
S11301605A601A1C53785BB2002BFBDB0D4A518892
S11301700E4B0B43538053785BB2002BFBDB0C4AD2
S1130180084B5A801A1C53785BB2002BFBDB0C2201
S1130190084B1A627047C04600080040FFFCFFFF8E
S11301A000400041000C0040010601001440000022
S11301B01541000000040040FEE7C04670B52E4B18
S11301C02E4A9A4203D02E4B2B4A9A4204D32D4BEB
S11301D02D4A9A4210D31EE02C4A294B03339B1A12
S11301E09B0801339B000022234824498C588450E7
S11301F004329A42FAD1EAE7254A224B03339B1A86
S11302009B0801339B0000221F4800211418216021
S113021004329A42FAD11F4AFF211F4B8B43936049
S1130220FD3990235B001D4AD1501D48C378032437
S1130230A34302221343C370C3780C26B34308219B
S11302400B43C370174B987B3025A843051C202013
S113025028439873987BB04301439973997BA143D6
S11302600A439A73104A516880230B4353600F4B1F
S113027098470F4B9847FEE70000002070080000E5
S113028080040020B8040020800400200400002022
S11302908404002000ED00E0000000000070004134
S11302A0005000410048004100400041C9060000E0
S11302B03503000070B5040CE2B21F231340640937
S11302C0E1B2C9010D4CA4466144CC1840342678EF
S11302D00125354325705B08CB1830331C78012188
S11302E00A4091000F228A4094431C701A7800043B
S11302F0000C88400243D2B21A7070BD0044004121
S113030008B580231B01064A1360064A1360064A97
S113031019681160054A1360054B984708BDC0462B
S1130320A0040020AC040020B4040020B004002089
S113033039060000F0B55F4656464D464446F0B4D3
S113034083B000AF654B802212059A6106205B21C1
S113035058541B6A13420DD0614B1B68614A1360E9
S1130360802109010B68043383F308885E4B99608C
S1130370136818475D4CA3685B035B0F802212036C
S11303809A40130C7B6099460733DB08DB006A460E
S1130390D31A9D463B60564B9847564B98474F4B54
S11303A01A68802149050A431A60534A13680B43AB
S11303B01360524A116A524B0B40136263688022E5
S11303C0D202134363604F484F4B98474F4B9B46B1
S11303D04C4B9A46D847512251468854232805D17C
S11303E04B4B98470E204B4B9847F3E7652811D1A8
S11303F080200001484B1860484E1C1C484D796809
S1130400B0472368581CFF302060A842F7D9404BFE
S11304109847DFE7702822D13D4B984700223E4B96
S11304201A604B46002B0AD00024384E3A4DB04790
S11304303B6818552B685C1C2C60A145F7D8394CD7
S1130440206839687A68384B984723684B4423609E
S11304502F4B98478022D201344B1A60BAE7762892
S113046019D12B4B984700222B4B1A604B46002B7B
S11304700CD02F4D274E284C2B685A1C2A60187814
S1130480B0472368013323609945F5D88022D2010F
S1130490264B1A609EE76D2802D1264B984799E7B0
S11304A0692803D11748184B984793E75E2891D1E0
S11304B00023194A136008241F4B9846154E151C37
S11304C043469869E040C0B2B0470834E4B22B68B0
S11304D001332B60032BF3D97CE7C0460044004171
S11304E004080000B404002000ED00E000400041D6
S11304F01501000089060000104400410008004076
S1130500FFFCFFFF00000020490600007106000008
S11305103906000021060000A40400203D05000067
S1130520FFFF0300A00400207D0500001C440041DF
S1130530B004002001030000002000410C49012206
S11305400B7D1A42FCD00A4A118B0A4B0B401383D1
S1130550111C01220B7D1A42FCD04008044BD861C7
S1130560054A1A80191C01220B7D1A42FCD07047DF
S113057000400041E0FEFFFF02A5FFFFF0B5224D61
S113058001242B7D1C42FCD01F4B5C688025AC43AE
S11305905C601E4C1C801D1C01242B7D1C42FCD065
S11305A0194C258B1A4B2B4023834008002A25D055
S11305B040000023541EA446134F164C2688CD5CDD
S11305C0634501DBACB203E0CC18647824022C430D
S11305D004803E8002339BB202309A42EFD80E4B25
S11305E01B78002B04D13F2A02D80C4A064B1A80F0
S11305F0054901220B7D1A42FCD004E0064B1B780E
S1130600002BF5D1F1E7F0BD0040004144A5FFFF08
S1130610E0FEFFFF400800009C04002004A5FFFF4B
S1130620044901220B7E1A42FCD080B2014B18858A
S11306307047C0460008004208B57320014B984734
S113064008BDC04621060000F8B50378002B0CD085
S1130650051C041C054F01231E1A2078C0B2B8479C
S1130660A4192C192378002BF7D1F8BD210600001A
S1130670044901220B7E9B081A42FBD0014B188DC2
S1130680C0B270470008004210B50948094CA047A1
S11306900948A047094B0A4A1A60C02292025A60CC
S11306A0084A9A81196802220A431A6010BDC0469A
S11306B002000A00B502000002000B00000800421C
S11306C00400314004C5FFFF70B50D4E0D4D0024EC
S11306D0AD1BAD1005D0A300F35801349847A542D3
S11306E0F9D100F0B3F8084E084D0024AD1BAD104D
S11306F005D0A300F35801349847A542F9D170BD41
S1130700580800005808000058080000600800005D
S113071008B5034B002B02D0024800F005F808BDD1
S1130720000000003907000008B5011C0022002069
S1130730002300F01BF808BD38B5094B094CE41A36
S1130740A41009D0084AA518AD00ED182B68013C87
S11307509847043D002CF9D100F082F838BDC0461A
S11307606C08000070080000FFFFFF3FF8B5444626
S11307705F4656464D469B462F4BF0B41C68A42357
S11307805B00051CE0580E1C904600284BD04368C3
S11307901F2B0DDC5C1C002D21D102339B00446017
S11307A01E5000203CBC90469946A246AB46F8BD7C
S11307B0224B002B3CD0C820400000E000BF0028A2
S11307C036D0A42200235200A15843600160A050F7
S11307D040328350043283500124002DDDD09A002E
S11307E091468144424688214F467A50C4225200A1
S11307F09046804442468739994012688A460A43A3
S11308009446424661461160842249465F4652003E
S11308108F50022DC1D1021C55468D32FF32116812
S11308200D431560B9E7201C4D30FF30E050AEE7B2
S113083001204042B6E7C04648080000000000001E
S113084004A500004300000058000020F8B5C0468D
S1130850F8BC08BC9E46704711070000DD0000008C
S1130860F8B5C046F8BC08BC9E467047B500000009
S11308706D696E6953616D2052312E330A426F6F78
S1130880746C6F616465722052312E342E310A44C7
S1130890657620426F61726420726567697374655E
S11308A072656420746F204A6572656D7920470A09
S11308B0426F617264204944203078303030310A0C
S11308C000010000000000000000000044030020BC
S11308D0AC0300201404002000000000000000000D
S11308E00000000000000000000000000000000004
S11308F000000000000000000000000044080000A8
S113090000000000000000000000000000000000E3
S113091000000000000000000000000000000000D3
S113092000000000000000000000000000000000C3
S113093000000000000000000000000000000000B3
S113094000000000000000000000000000000000A3
S11309500000000000000000000000000000000093
S11309600000000000000000000000000000000083
S113097001000000000000000E33CDAB34126DE620
S1130980ECDE05000B000000000000000000000089
S11309900000000000000000000000000000000053
S11309A00000000000000000000000000000000043
S11309B00000000000000000000000000000000033
S11309C00000000000000000000000000000000023
S9030000FC
