:1000000068240020BD010000B9010000B901000012
:1000100000000000000000000000000000000000E0
:10002000000000000000000000000000B901000016
:100030000000000000000000B9010000B90100004C
:10004000B9010000B9010000B9010000B9010000C8
:10005000B9010000B9010000B9010000B9010000B8
:10006000B9010000B9010000B9010000B9010000A8
:10007000B9010000B9010000B9010000B901000098
:10008000B9010000B9010000B9010000B901000088
:10009000B9010000B9010000B9010000B901000078
:1000A000B9010000B9010000B9010000B901000068
:1000B0000000000010B5064C2378002B07D1054B3B
:1000C000002B02D0044800E000BF0123237010BDC4
:1000D00030040020000000002008000008B5084B94
:1000E000002B03D00748084900E000BF0748036819
:1000F000002B00D108BD064B002BFBD09847F9E739
:100100000000000020080000340400202008000047
:1001100000000000204A116A204B0B401362204A65
:1001200053688021C9020B43536000221D4B9A6023
:100130001A1C53785BB2002BFBDB83225202194B53
:100140005A601A1C53785BB2002BFBDB0022154B64
:100150009A601A1C53785BB2002BFBDB124A114BDE
:100160005A601A1C53785BB2002BFBDB0D4A518896
:100170000E4B0B43538053785BB2002BFBDB0C4AD6
:10018000084B5A801A1C53785BB2002BFBDB0C2205
:10019000084B1A627047C04600080040FFFCFFFF92
:1001A00000400041000C0040010601001440000026
:1001B0001541000000040040FEE7C04670B52E4B1C
:1001C0002E4A9A4203D02E4B2B4A9A4204D32D4BEF
:1001D0002D4A9A4210D31EE02C4A294B03339B1A16
:1001E0009B0801339B000022234824498C588450EB
:1001F00004329A42FAD1EAE7254A224B03339B1A8A
:100200009B0801339B0000221F4800211418216025
:1002100004329A42FAD11F4AFF211F4B8B4393604D
:10022000FD3990235B001D4AD1501D48C37803243B
:10023000A34302221343C370C3780C26B34308219F
:100240000B43C370174B987B3025A843051C202017
:1002500028439873987BB04301439973997BA143DA
:100260000A439A73104A516880230B4353600F4B23
:1002700098470F4B9847FEE7000000202008000039
:100280003004002068040020300400200400002016
:100290003404002000ED00E0000000000070004188
:1002A0000050004100480041004000417906000034
:1002B0002903000070B5040CE2B21F231340640947
:1002C000E1B2C9010D4CA4466144CC1840342678F3
:1002D0000125354325705B08CB1830331C7801218C
:1002E0000A4091000F228A4094431C701A7800043F
:1002F000000C88400243D2B21A7070BD0044004125
:1003000080231B01044A1360044A1360044A1968DD
:100310001160044A13607047500400205C04002000
:100320006404002060040020F0B55F4656464D4648
:100330004446F0B483B000AF604B802292049A61CF
:100340000620592158541B6A13420DD05C4B1B6880
:100350005C4A1360802109010B68043383F3088829
:10036000594B996013681847584CA3685B035B0F9F
:10037000802212039A40130C7B6099460733DB08F6
:10038000DB006A46D31A9D463B60514B9847514B60
:1003900098474A4B1A688021C9010A431A604E4A9D
:1003A00013680B4313604D4A116A4D4B0B401362A7
:1003B00063688022D202134363604A4B9B464A4BD8
:1003C0009A46D84752461070232805D1474B984784
:1003D0000E20474B9847F4E7652811D18020000193
:1003E000444B1860444E1C1C444D7968B047236848
:1003F000581CFF302060A842F7D93C4B9847E0E7F3
:10040000702822D1394B984700223A4B1A604B464C
:10041000002B0AD00024334E364DB0473B681855A8
:100420002B685C1C2C60A145F7D8354C20683968D6
:100430007A68344B984723684B4423602B4B98478A
:100440008022D201304B1A60BBE7762819D1274BA6
:1004500098470022274B1A604B46002B0CD02B4D9F
:10046000234E244C2B685A1C2A601878B047236806
:10047000013323609945F5D88022D201224B1A60BE
:100480009FE76D2802D1224B98479AE75E2898D1C2
:100490000023184A136008241E4B9846144E151C5E
:1004A00043469869E040C0B2B0470834E4B22B68D4
:1004B00001332B60032BF3D983E7C046004400418E
:1004C000040800006404002000ED00E0004000414A
:1004D000150100003D0600001044004100080040E6
:1004E000FFFCFFFF250600000000002015060000AD
:1004F000FD0500005404002019050000FFFF030063
:1005000050040020590500001C44004160040020F4
:1005100001030000002000410C4901220B7D1A421A
:10052000FCD00A4A118B0A4B0B401383111C012289
:100530000B7D1A42FCD04008044BD861054A1A8052
:10054000191C01220B7D1A42FCD07047004000416B
:10055000E0FEFFFF02A5FFFFF0B5224D01242B7D39
:100560001C42FCD01F4B5C688025AC435C601E4C79
:100570001C801D1C01242B7D1C42FCD0194C258B9A
:100580001A4B2B4023834008002A25D0400000232B
:10059000541EA446134F164C2688CD5C634501DBE0
:1005A000ACB203E0CC18647824022C4304803E8073
:1005B00002339BB202309A42EFD80E4B1B78002BCD
:1005C00004D13F2A02D80C4A064B1A800549012261
:1005D0000B7D1A42FCD004E0064B1B78002BF5D1B2
:1005E000F1E7F0BD0040004144A5FFFFE0FEFFFF42
:1005F000F00700004C04002004A5FFFF044901227D
:100600000B7E1A42FCD080B2014B18857047C04661
:10061000000C004208B57320014B984708BDC04646
:10062000FD050000044901220B7E9B081A42FBD005
:10063000014B188DC0B27047000C004210B509483C
:10064000094CA0470948A047094B0A4A1A60C02232
:1006500092025A6000229A81196802320A431A6093
:1006600010BDC04603000400B502000003000500F1
:10067000000C00420400314070B50D4E0D4D0024B9
:10068000AD1BAD1005D0A300F35801349847A54227
:10069000F9D100F0B3F8084E084D0024AD1BAD10A1
:1006A00005D0A300F35801349847A542F9D170BD95
:1006B00008080000080800000808000010080000F2
:1006C00008B5034B002B02D0024800F005F808BD26
:1006D00000000000E906000008B5011C002200200F
:1006E000002300F01BF808BD38B5094B094CE41A8B
:1006F000A41009D0084AA518AD00ED182B68013CDC
:100700009847043D002CF9D100F082F838BDC0466E
:100710001C08000020080000FFFFFF3FF8B544461A
:100720005F4656464D469B462F4BF0B41C68A423AB
:100730005B00051CE0580E1C904600284BD0436817
:100740001F2B0DDC5C1C002D21D102339B0044606B
:100750001E5000203CBC90469946A246AB46F8BDD0
:10076000224B002B3CD0C820400000E000BF0028F6
:1007700036D0A42200235200A15843600160A0504B
:1007800040328350043283500124002DDDD09A0082
:1007900091468144424688214F467A50C4225200F5
:1007A0009046804442468739994012688A460A43F7
:1007B0009446424661461160842249465F46520093
:1007C0008F50022DC1D1021C55468D32FF32116867
:1007D0000D431560B9E7201C4D30FF30E050AEE707
:1007E00001204042B6E7C046F807000000000000C4
:1007F00004A500004300000008000020F8B5C04632
:10080000F8BC08BC9E467047C1060000DD00000031
:10081000F8B5C046F8BC08BC9E467047B50000005D
:10082000010000000000000000000000F4020020B1
:100830005C030020C4030020000000000000000052
:1008400000000000000000000000000000000000A8
:10085000000000000000000000000000F40700009D
:100860000000000000000000000000000000000088
:100870000000000000000000000000000000000078
:100880000000000000000000000000000000000068
:100890000000000000000000000000000000000058
:1008A0000000000000000000000000000000000048
:1008B0000000000000000000000000000000000038
:1008C0000000000000000000000000000000000028
:1008D00001000000000000000E33CDAB34126DE6C5
:1008E000ECDE05000B00000000000000000000002E
:1008F00000000000000000000000000000000000F8
:1009000000000000000000000000000000000000E7
:1009100000000000000000000000000000000000D7
:1009200000000000000000000000000000000000C7
:00000001FF
